:020000040800F2
:1000000068080020290200083F2500084321000855
:100010003D250008A3050008352E0008000000005B
:10002000000000000000000000000000952700080C
:100030008D0700080000000001270008492800087B
:10004000430200084302000843020008430200087C
:10005000430200084302000843020008430200086C
:10006000430200084302000843020008430200085C
:10007000430200084302000843020008430200084C
:10008000430200084302000843020008430200083C
:10009000A5050008430200084302000843020008C7
:1000A000430200084302000843020008430200081C
:1000B000430200084302000843020008430200080C
:1000C00043020008430200084302000843020008FC
:1000D0004302000843020008292E000843020008DA
:1000E00043020008430200084302000843020008DC
:1000F00043020008430200084302000843020008CC
:1001000043020008430200084302000843020008BB
:1001100043020008430200084302000843020008AB
:10012000430200084302000843020008430200089B
:100130004302000800000000000000004302000825
:10014000430200084302000843020008430200087B
:10015000430200084302000843020008430200086B
:10016000430200084302000843020008430200085B
:1001700043020008430200080000000000000000E5
:10018000430200084302000800F002F800F03CF8C7
:100190000AA090E8000C82448344AAF10107DA45E2
:1001A00001D100F031F8AFF2090EBAE80F0013F0F8
:1001B000010F18BFFB1A43F001031847842F0000FA
:1001C000A42F0000103A24BF78C878C1FAD852078B
:1001D00024BF30C830C144BF04680C6070470000C1
:1001E0000023002400250026103A28BF78C1FBD840
:1001F000520728BF30C148BF0B6070471FB502F0DF
:100200008DFF1FBD10B510BD00F0CFF81146FFF7F0
:10021000F5FF02F031FE00F0EDF803B4FFF7F2FF56
:1002200003BC00F0F5F80000094880470948004782
:10023000FEE7FEE7FEE7FEE7FEE7FEE7FEE7FEE796
:10024000FEE7FEE704480549054A064B70470000F3
:10025000DD280008890100086802002068080020E5
:10026000680400206804002053EA020C00F0698052
:100270002DE9F04B4FF00006002B1FBFB3FA83F5BA
:1002800003FA05F424FA05F65E4012BF1643B2FAEB
:1002900082F502FA05F4C5F120051EBF22FA05FC1D
:1002A00044EA0C04203556EA044C4FEA144418BFC3
:1002B000641C4FF000084FF00009904271EB030CF2
:1002C00039D3002919BFB1FA81F701FA07F6B0FA5C
:1002D00080F700FA07F6C7F120071EBF20FA07FCD7
:1002E00046EA0C062037B6FBF4FCA7EB0507103FE7
:1002F00007F01F0BCBF120060CFA0BFB2CFA06F6CD
:1003000044BFB3460026202FA4BF5E464FF0000B2B
:100310005BEA060C08BF4FF0010B19EB0B09ABFBB6
:10032000027C48EB0608C01B06FB02CC0BFB03CC8F
:1003300071EB0C01C1E70B46024641464846BDE859
:10034000F08B13B54FF000004FF00001AFF30080C9
:10035000BDE81C4070474FF0000200B513469446BC
:100360009646203922BFA0E80C50A0E80C50B1F10D
:100370002001BFF4F7AF090728BFA0E80C5048BF21
:100380000CC05DF804EB890028BF40F8042B08BFBF
:10039000704748BF20F8022B11F0804F18BF00F8BB
:1003A000012B7047704770477047754600F02CF876
:1003B000AE4605006946534620F00700854618B052
:1003C00020B5FFF73FFFBDE820404FF000064FF09B
:1003D00000074FF000084FF0000B21F00701AC467A
:1003E000ACE8C009ACE8C009ACE8C009ACE8C00999
:1003F0008D46704710B50446AFF300802046BDE837
:100400001040FFF70ABF00000048704704020020B8
:1004100001491820ABBEFEE726000200704700002D
:100420002DE9F047434C05468A46608A25EA0006D6
:10043000280502D500F0ACF978E04FF0010884F807
:1004400009803C48F1074FF00007C07A0BD0A9079C
:1004500009D484F80A8070B19FED370A02F0B6F82B
:10046000E16A084406E0B10705D5E90703D1A772A0
:1004700008B1E06A206368074FF0FF394FEA057062
:1004800003D5002808DB404604E0002804DA6807AA
:1004900002D44846A07100E0A771E8044FEA854005
:1004A00003D5002808DB404604E0002804DAE8040D
:1004B00002D44846E07100E0E771B00506D5277226
:1004C00002F0BAFC02F046F9404607E0700507D595
:1004D000277202F0B1FCC4F84CA00420A07325E000
:1004E00015F4F87F00D0A773A07BF8B9A80602D551
:1004F00002F030F903E0E80601D502F03BF96806A6
:1005000002D502F0A1FC01E002F096FC28064FEAB9
:10051000C55003D5002808DB404604E0002804DA73
:10052000280602D44846207200E027726582BDE8A2
:10053000F08700000000002000005C4270B5104C05
:100540000546B0F80100208295F9030000F01AF882
:10055000607095F9040000F015F8A07095F9050099
:1005600000F010F8E07000F055FEE061012020710D
:10057000206A401C2062606A401C606270BD0000FE
:1005800000000020411D0A2901D80020704764287E
:1005900001DD642070476FF063018842FADA084693
:1005A0007047FEE7014800F080BA00009401002087
:1005B00000B58BB028216846FFF7CDFE0020012151
:1005C000CDE90601059000900190029003900490FF
:1005D0000E20CDE908106946084800F065F948B9D1
:1005E000064800F08BFC28B90221044800F0E2F82C
:1005F000002801D000F0DAF80BB000BD9401002013
:1006000001EB8103134910B501EB83010B694BB179
:100610000B69D21A642A05D8B1F9081001F1140245
:10062000282A03D802F05EF8002010BD00EE101A50
:10063000F8EEC00A9FED080A01F0E0FF9FED071AEF
:10064000DFED070A00F00EF8BDEEC00A10EE100A4A
:1006500000B210BD680000200000000000409C4572
:1006600000409CC5B4EEC10AF1EE10FA02DDB0EE16
:10067000410A7047B4EEE00AF1EE10FAF9D2B0EE9A
:10068000600A7047074810B5002141708170C17041
:100690008171C1710172817302F05CF8BDE8104094
:1006A00002F0CABB00000020130A43540844427001
:1006B00070470000F0B589B00C4605461F46164647
:1006C00018216846FFF747FE002040F2FF1107900F
:1006D00000910690089002900821CDE903018DF861
:1006E000140001462A4606A8FFF7DEFF2246022133
:1006F00006A8FFF7D9FF3246042106A8FFF7D4FF6A
:100700003A46062106A8FFF7CFFF08AB06AA6946BE
:10071000024800F061F809B0F0BD0000940100202B
:10072000F0B589B00C4605461F46164618216846A6
:10073000FFF711FE00204FF4007107900091069022
:10074000089002900821CDE903018DF814000146BC
:100750002A4606A8FFF7A8FF2246022106A8FFF7AF
:10076000A3FF3246042106A8FFF79EFF3A46062162
:1007700006A8FFF799FF08AB06AA6946024800F0F1
:100780002BF809B0F0BD0000940100207047000074
:1007900010B5FFF777FF0448002141728172C172E2
:1007A0000173417310BD000000000020FFF7F0FF4F
:1007B00072B6FEE790F82020012A07D0022A05D061
:1007C000416A41F48021416201207047006842691A
:1007D0000A43426100207047F0B590F82050046849
:1007E000A468012D05D0022D03D0416A41F4802177
:1007F00057E014F0406F01D1E5004FD5C4F3016418
:100800000125A5401D608D684FF4C0739DB1CE6871
:1008100035434E6845EAC605066803EB0417F551F3
:100820004FF4C275076805EB04150E697E51097D0A
:10083000012905D009E00E88CD6845EA4655EBE769
:1008400001684E5946F480764E511179D579567922
:1008500041EA056195792D0445EA062529434FF4BF
:10086000C676056806EB0416A9511178D57841EAD9
:100870000561957852782D0445EA022211434FF420
:10088000C475026805EB04155151006803EB0411AF
:10089000425842F0010242500020F0BD416A41F44A
:1008A000001141620120F0BD10B590F82020012A0E
:1008B00007D0022A05D0416A41F48021416201201B
:1008C00010BD3B48D0F8002242F00102C0F80022DF
:1008D000D0F8002222F47C52C0F80022D0F8002286
:1008E0004B6A42EA0322C0F800220A7D02F01F038D
:1008F00001229A40D0F81C329343C0F81C32CB69D5
:10090000B3B9D0F80C329343C0F80C328C894B68E1
:1009100064F31F434C6900EBC404C4F840320C89F3
:100920000B6864F31F434C6900EBC404C4F8443201
:10093000CB69012B16D1D0F80C321343C0F80C321E
:100940000C884B6864F31F434C6900EBC404C4F883
:1009500040320C89CB6864F31F434C6900EBC4043C
:10096000C4F844328B69002BD0F804320ED0134304
:10097000C0F804320B69002BD0F8143208D01343AE
:10098000C0F81432096A012904D008E09343EFE764
:100990009343F5E7D0F81C121143C0F81C12D0F8AD
:1009A000001221F00101C0F80012002010BD00006B
:1009B00000640040704770B590F82040012C05D0CD
:1009C000022C03D0416A41F4802128E0046809B375
:1009D0002469A40720D04FF4D874056804EB0114EF
:1009E0002D5915F00405956005682D591AD0ED08AC
:1009F000556005682C5904F00204D4604FF4DA7491
:100A0000056804EB01142E5906F00F06082E0CD3CE
:100A100008250DE0E468DCE7416A41F40011416219
:100A2000012070BD6D0D1560E3E72D5905F00F0530
:100A3000156105682D59C5F30725956105682C5981
:100A4000240C54614FF4DC72046802EB0112A458C8
:100A50001C700468A458240A5C700468A458240C10
:100A60009C700468A258120EDA704FF4DE720468AB
:100A700002EB0112A4581C710468A458240A5C718A
:100A80000468A458240C9C710468A258120EDA71F0
:100A9000006829B1016941F020010161002070BDA9
:100AA000C16841F02001C160F8E72DE9F05F05461B
:100AB000006800244669D0F804908768D0F80CB02C
:100AC000D0F810A0D0F81880F10748D0F90714D05A
:100AD00001218160B80703D5284600F03CFA0CE0FC
:100AE000780702D54FF4006407E0380702D54FF4C9
:100AF000805402E0284600F02DFAF80516D5296842
:100B00004FF480708860B80503D5284600F025FAB8
:100B10000CE0780502D544F4005407E0380502D50E
:100B200044F4804402E0284600F016FAF80316D593
:100B300029684FF480308860B80303D5284600F058
:100B40000EFA0CE0780302D544F4004407E03803C1
:100B500002D544F4803402E0284600F0FFF9300763
:100B600007D55FEACB6004D52968102044F40074EF
:100B7000C86070074FF0080707D55FEA0B7004D50F
:100B80002868C760284600F059F9B00706D52868DC
:100B9000C068800702D0284600F052F9700607D5D9
:100BA0005FEACA6004D52968102044F480640861B3
:100BB000B00607D55FEA0A7004D5286807612846A1
:100BC00000F098F9F00606D528680069800702D081
:100BD000284600F090F9B00308D55FEAC96005D552
:100BE000296810204860284600F086F9F00307D5F0
:100BF0005FEA097004D528684760284600F0B0F91C
:100C0000300446D55FEA497040D5F00504D55FEA67
:100C1000C87001D044F00104B00504D55FEA8870C3
:100C200001D544F00204700504D55FEA487001D58F
:100C300044F00404300529D518F0700F26D008F0D0
:100C40007000402815D006DC102809D020280AD0D2
:100C5000302816D10AE050280ED0602811D10EE0BD
:100C600044F008040DE044F010040AE044F02004CD
:100C700007E044F0400404E044F0800401E044F460
:100C800080742868816921F07001816129680420DD
:100C90004860002C05D0686A204368622846FFF748
:100CA00089FEBDE8F09F70B5040003D094F82000E1
:100CB00010B104E0012070BD204600F081F82068EA
:100CC000016841F00101016000F0A4FA0546052623
:100CD00004E000F09FFA401B0A2811D82068406801
:100CE000C007F6D02068016821F00201016000F021
:100CF00091FA05460BE000F08DFA401B0A2806D950
:100D0000606A40F40030606284F82060D2E72068B6
:100D100040688007EFD4207E0128206801683DD01C
:100D200021F080010160607E01282068016838D0D0
:100D300021F040010160A07E01282068016833D0C5
:100D400021F020010160E07E0128206801682ED09A
:100D500041F010010160207F01282068016829D03E
:100D600021F008010160607F01282068016824D01B
:100D700021F004010160D4E902010843D4E904121E
:100D8000114308436168491E08432168C861002077
:100D90006062012084F82000002070BD41F08001D5
:100DA000C0E741F04001C5E741F02001CAE721F06A
:100DB0001001CFE741F00801D4E741F00401D9E781
:100DC00010B586B0044614216846FFF7C4FA1849E6
:100DD0002068884229D117480021026842F0007239
:100DE0000260006800F00070059012481038026838
:100DF00042F001020260006800F0010005904FF42B
:100E0000C05000900220CDE9010103200390092089
:100E100004906946084800F0FFF8002211461420AB
:100E200000F066FA142000F055FA06B010BD00007C
:100E3000006400404038024000000240704700005B
:100E400030B5294A016889B091424BD16B4602AA5C
:100E50000021FFF7B0FD002844D124488169491CD6
:100E60008161049800283DD10298B0F5007F39D9FE
:100E700040F20621884235D80699082932D1401E11
:100E8000C0B21B4A00EB800302EB8304BDF80010E4
:100E9000607B49BA38B16088081AB0F5805F08DD18
:100EA000A0F500500AE061800020606001206073BE
:100EB00008E010F5805F01DA00F50050656828440D
:100EC0006060618022F82310BDF8020040BA2081E2
:100ED000BDF8040040BA60819DF80600207300F060
:100EE00099F9206109B030BD006400400000002085
:100EF00068000020704770477047000070B50446D6
:100F000090F82000012804D0606A40F4002060625C
:100F100018E0022084F820002068016821F0010117
:100F2000016000F077F905460EE000BF00F072F9AD
:100F3000401B0A2808D9606A40F40030606205202E
:100F400084F82000012070BD20684068C007EDD102
:100F5000606270BD70477047704770477047704758
:100F600070472DE9F0410446876D00F053F90646BD
:100F700094F835000025022806D08020606584F8AA
:100F800034500120BDE8F0812068016821F016018D
:100F900001602068416921F080014161206C08B93D
:100FA000A06C20B12068016821F008010160206870
:100FB000016821F0010101600CE000F02BF9801BB9
:100FC000052807D920206065032084F8350084F8BF
:100FD0003450D7E720680068C007EED194F85C1061
:100FE0003F208840B860012084F8350084F83450F0
:100FF0000020C7E790F83510022903D08021416511
:1010000001207047052180F835100068016821F043
:1010100001010160002070472DE9F84FDFF8BCA105
:101020000022012503264FF00F090AF1040BAAF153
:10103000040E00BF0B6805FA02F42340A34270D1EE
:101040000F7907F00307012F01D0022F16D187680F
:101050004FEA420806FA08FC27EA0C07D1F80CC050
:101060000CFA08FC4CEA070CC0F808C04768A74314
:101070000C79C4F3001494403C4344600C79E4437D
:10108000A4070AD0C4684FEA420C06FA0CF7BC4326
:101090008F6807FA0CF72743C7600C7904F0030444
:1010A000022C12D1D40800EB840CDCF82040570746
:1010B000FF0E09FA07F824EA0804D1F8108008FAAC
:1010C00007F848EA0408CCF8208004684FEA420C8C
:1010D00006FA0CF7BC430F7907F0030707FA0CF781
:1010E000274307604C6814F4403F70D03C4C27689D
:1010F00047F480472760246822F0030704F4804403
:101100000094384C07EB040CDCF8084897074FEACA
:10111000177809FA08F7BC43334FB84202D10027C9
:1011200024E054E0314FB84201D101271EE0304F96
:10113000B84201D1022719E02E4FB84201D103274E
:1011400014E02D4FB84201D104270FE02B4FB842D5
:1011500001D105270AE02A4FB84201D1062705E050
:10116000284FB84201D1072700E0082707FA08F7FF
:101170002743CCF80878DAF800405746D1F804C085
:101180009C435FEACC2C00D51C433C60DBF800405C
:101190005F46D1F804C09C435FEA8C2C00D51C4309
:1011A0003C60DEF800407746D1F804C09C435FEA1B
:1011B0008C3C00D51C433C60084F083F3C68D1F88C
:1011C00004C09C435FEACC3C00D51C433C60521CED
:1011D000102AFFF42FAFBDE8F88F0000083C014053
:1011E0004438024000300140000002400004024048
:1011F00000080240000C02400010024000140240AF
:1012000000180240001C02400AB1816170470904C5
:10121000FBE700000148806870470000580000208C
:1012200002488168027811448160704758000020AC
:101230000B4810B5016841F400710160016841F488
:1012400080610160016841F480710160032000F059
:101250006FF80F2000F006F800F024F8002010BD11
:10126000003C024070B50D4D04464FF47A71287869
:10127000B1FBF0F00A490968B1FBF0F000F00AFB9D
:1012800048B9102C07D200222146501E00F030F839
:1012900000206C6070BD012070BD0000580000206F
:1012A000640000200A4808B5016841F480410160EB
:1012B000006800F4804000900548001F016841F07C
:1012C00080510160006800F08050009008BD00006F
:1012D00044380240002809DB00F01F020121914040
:1012E0004009800000F1E020C0F8001170470000C4
:1012F000F0B40E4B1B680C46C3F30223C3F1070581
:10130000042D00D90425191D072901D2002300E06E
:10131000DB1E012606FA05F1491E214099409E4038
:10132000761E16403143F0BC01F096BD0CED00E096
:10133000064900F0070208684FF6FF03184040EA2C
:101340000220034A10430860704700000CED00E0E3
:101350000000FA052DE9F0470E46050065D0DFF8DC
:101360001481D8F80000F7B200F00700B04207D2AD
:1013700088F80070D8F8000000F00700B04254D19F
:1013800028683D4C810712D5400703D5206840F4FA
:10139000E05020602878000703D5206840F46040C2
:1013A00020602068A96820F0F000084320602878B9
:1013B000C0072DD0304968680839012812D00228AA
:1013C00013D0032811D00968890700292DDA216874
:1013D00021F0030101432160FFF71CFF814641F228
:1013E000883A0EE009688903EFE709688901ECE7AC
:1013F000FFF710FFA0EB0901514502D90320BDE81A
:10140000F0872068696800F00C00B0EB810FEFD125
:10141000D8F80010404601F00701B14207D9077023
:10142000006800F00700B04201D00120E7E728780B
:10143000400705D52068E96820F4E05008432060A3
:101440002878000706D52068296920F4604040EA22
:10145000C100206000F038F82168084AC1F3031188
:10146000515CC8400649086006480068FFF7FAFE6C
:101470000020C4E7003C0240083802402631000842
:10148000640000205C0000200448054900680968E9
:10149000044AC1F38221515CC840704764000020B7
:1014A00008380240363100080448054900680968D8
:1014B000044AC1F34231515CC840704764000020C7
:1014C0000838024036310008154810B5006810F0A1
:1014D0000C02144813D04110042A0FD0082A0ED150
:1014E0000F4C241F2268236802F03F025B0207D5DD
:1014F0002068C0F38810A0FB010106E0084610BD7B
:101500002168C1F38811A1FB00010023FEF7ACFEA6
:101510002168C1F30141491C4900B0FBF1F010BD45
:10152000083802400024F4002DE9F84F04006ED082
:101530002078DFF84C93C007A9F104054AD009F1DF
:1015400004000168C1F38101012908D00068C0F3DB
:10155000810002280AD1D9F80000400206D5286887
:10156000800337D560680028E1D033E06068B0F5CB
:10157000803F10D0B0F5A02F286810D020F4803024
:101580002860286820F4802028606068A8B1FFF7F0
:1015900041FE06460DE0286840F48030F4E740F450
:1015A00080202860F7E700BFFFF734FE801B642827
:1015B00073D828688003F7D50CE0FFF72BFE0646AA
:1015C00005E000BFFFF726FE801B6428F0D82868DE
:1015D0008003F7D42078DFF8AC8280074FF0000A50
:1015E0003ED5A748001D016811F00C0F08D0006817
:1015F000C0F3810002280BD1D9F80000400207D4C3
:101600002868800716D5E068012800D112E033E190
:10161000E068B8B10120C8F80000FFF7FBFD0646FE
:1016200005E000BFFFF7F6FD801B0228C0D8286840
:101630008007F7D52868216920F0F80040EAC1004A
:1016400028600DE0C8F800A0FFF7E4FD064604E0BE
:10165000FFF7E0FD801B02281FD828688007F7D419
:101660002078000722D5864F87486169703771B1AD
:1016700001210160FFF7CEFD064604E0FFF7CAFD39
:10168000801B022809D838688007F7D50EE0C0F81B
:1016900000A0FFF7BFFD064605E082E0FFF7BAFDB8
:1016A000801B02287DD838688007F7D4207840074F
:1016B00068D5DFF8CCB100270BF13C0BDBF800005C
:1016C000C0000BD4DBF8001041F08051CBF80010C3
:1016D000DBF80000012700F0805000906B4E30686E
:1016E000C00510D4306840F480703060FFF792FD80
:1016F000009005E0FFF78EFD0099401A022850D8AF
:101700003068C005F6D55E4EA0686C3601280FD053
:101710000528306810D020F001003060306820F0DB
:1017200004003060A068B8B1FFF774FD00900FE0CE
:10173000306840F00100F4E740F004003060F7E763
:10174000FFF768FD0099411A41F28830814266D85E
:1017500030688007F4D50EE0FFF75CFD009007E0ED
:10176000FFF758FD0099411A41F28830814256D85E
:1017700030688007F4D42FB1DBF8001021F08051DD
:10178000CBF80010A069C8B33D49091D0968C1F331
:10179000810102294AD00228504607D0C8F86000CB
:1017A00000E03CE0FFF736FD04463BE04746C8F862
:1017B0006000FFF72FFD064605E000BFFFF72AFD9A
:1017C000801B02282BD828688001F7D4D4E90701B0
:1017D0000843A16A2E4A490802EB0141626A41EAC4
:1017E0008211084394F82C1040EA0161C9F80010F6
:1017F00001203866FFF70EFD044606E03EE000BF1C
:10180000FFF708FD001B022809D828688001F7D5DA
:1018100034E000BFFFF7FEFC001B022802D90320C2
:10182000BDE8F88F28688001F4D427E00128F7D0BC
:10183000D9F80000E26900F4800191421CD1226ACB
:1018400000F03F01914217D147F6C071626A014032
:10185000B1EB821F10D1A26A4FF0FF3300F4403188
:1018600003EB5202B1EB024F06D194F82C1000F0BA
:101870007060B0EB016F01D00120D1E70020CFE70D
:101880000438024000004742800E4742007000408A
:101890000000FFFF10B5401EB0F1807F01D3012092
:1018A00010BD4FF0E02460610F21601701F0D4FA01
:1018B0000020A06107202061002010BD70B590F8C5
:1018C0003C20012A32D0012480F83C40022280F8DA
:1018D0003D2003685A689D6822F070060A6832430A
:1018E0005A60134B02689A4214D0B2F1804F11D063
:1018F000104B9A420ED0104B9A420BD00F4B9A428B
:1019000008D00F4B9A4205D00E4B9A4202D00E4B94
:101910009A4204D1496825F080031943916080F808
:101920003D40002180F83C10084670BD022070BD8B
:10193000000001400004004000080040000C00408E
:1019400000040140004001400018004010B50400B0
:1019500003D094F83D0010B107E0012010BD002035
:1019600084F83C00204600F01FF8022084F83D0077
:10197000211D206800F0BAFF012084F8460084F899
:101980003E0084F83F0084F8400084F8410084F869
:10199000420084F8430084F8440084F8450084F849
:1019A0003D00002010BD000008B5006806498842CF
:1019B00008D10648016841F002010160006800F0AA
:1019C0000200009008BD00000004004040380240C2
:1019D00070B5044690F83C000025012817D0012678
:1019E00084F83C60022084F83D002068826822F080
:1019F000770222F47F4282600868502838D00DDCDC
:101A000020284FD005DC90B3102811D14AE00220E5
:101A100070BD302846D040280AD13BE060282FD046
:101A200070280DD0B0F5805F03D0B0F5005F12D004
:101A3000012584F83D60002084F83C00284670BDF4
:101A4000CB68D1E90121206800F0C5FF20688168DA
:101A500041F0770109E0CB68D1E90121206800F06D
:101A6000BAFF2068816841F480418160E1E719E0B4
:101A7000CA684968206801F083F85021206806E0B0
:101A8000CA684968206801F08CF86021206800F07D
:101A9000ACFFCEE7CA684968206801F071F84021C0
:101AA0002068F4E7226801461046F0E710B586B0DA
:101AB000044614216846FEF74EFC0D492068884212
:101AC00014D10C480021026842F001020260006853
:101AD00000F001000590402000900220CDE90101B6
:101AE0000390049069460448FFF796FA06B010BDCB
:101AF00000040040303802400000024070B5044647
:101B000090F83C0000260D4601280FD0012084F8F3
:101B10003C006AB1042A1DD0082A2FD00C2A3FD0DD
:101B20000126002084F83C00304670BD022070BDC4
:101B3000206800F063FF2068816941F0080181613D
:101B40002068816921F004018161206881692A6926
:101B5000114311E0206800F081FF2068816941F4A1
:101B6000006181612068816921F480618161206860
:101B700081692A6941EA02218161D2E7206800F087
:101B8000A3FF2068C16941F00801C1612068C169F3
:101B900021F00401C1612068C1692A69114311E083
:101BA000206800F0C5FF2068C16941F40061C1618F
:101BB0002068C16921F48061C1612068C1692A6916
:101BC00041EA0221C161ACE710B5040003D094F8EA
:101BD0003D0010B107E0012010BD002084F83C005A
:101BE000204600F01EF8022084F83D00211D2068E8
:101BF00000F07CFE012084F8460084F83E0084F862
:101C00003F0084F8400084F8410084F8420084F8E2
:101C1000430084F8440084F8450084F83D00002027
:101C200010BD704710B50446022249B104290ED0F8
:101C3000082913D094F84100012816D0012010BDC6
:101C400094F83E000128F9D184F83E200FE094F882
:101C50003F000128F2D184F83F2008E094F84000CA
:101C60000128EBD184F8402001E084F841200122D2
:101C7000206800F0A3FE16492068164A884201D069
:101C8000904203D1436C43F400434364206888428C
:101C900013D0B0F1804F10D00F4988420DD00F49BA
:101CA00088420AD00E49884207D0904205D00D499B
:101CB000884202D00C49884204D1816801F00701B2
:101CC000062903D0016841F001010160002010BD28
:101CD00000000140000401400004004000080040F2
:101CE000000C004000400140001800407047000018
:101CF00038B5044600680A49884210D109490020D5
:101D000048710871FEF7BEFC2068016840680090C9
:101D1000BDE8384001220349034800F0B5B938BD99
:101D20000044004000000020BC010020F8B501681C
:101D300004460868CA684B6910F00F0F4FF00005A1
:101D400059D003F0010602F49077374365D0C107FC
:101D500005D0D10503D5616C41F0010161644107F3
:101D600005D5D90703D0616C41F002016164810798
:101D700005D5D90703D0616C41F004016164010706
:101D800007D502F02001314303D0616C41F0080116
:101D90006164616C00293AD0800604D5900602D5B2
:101DA000204600F03EFF20684069616CC0F380105F
:101DB000090700D460B3204600F00CFF206840699A
:101DC000400621D52068143050E8001F21F0400162
:101DD00040E80012002AF5D1E06BA8B17249016514
:101DE000E06BFFF707F9002811D0E06B016D01B03F
:101DF000BDE8F040084783060FD593060DD5204671
:101E0000BDE8F84000F00DBF2046FFF771FFF8BDB8
:101E10002046FFF76DFF6564F8BD266B2023012E79
:101E20007ED1C6067CD5D6067AD50868486800906B
:101E300048694FF0020640064DD5E26B10684068D5
:101E40004FF480770004000C3AD0A18D814237D93D
:101E5000E085D069B8422DD020680C3050E8001FD2
:101E600021F4807140E80012002AF5D12068143076
:101E700050E8001F21F0010140E80012002AF5D1CE
:101E80002068143050E8001F21F0400140E80012A3
:101E9000002AF5D184F84230256320680C3050E8E0
:101EA000001F21F0100140E80012002AF5D1E06B7C
:101EB000FFF757F86663A08DE18D401A81B206E006
:101EC000A18D8142A8D1D069B842A5D166632046D0
:101ED000FFF70CFFF8BDA08DE18D401A81B2E08DB7
:101EE0000028F7D00029F5D020680C3050E8002FEA
:101EF00022F4907240E80027002FF5D120681430BA
:101F000050E8002F22F0010240E80027002FF5D111
:101F100084F84230256320680C3050E8002F00E040
:101F200006E022F0100240E80023002BF3D1CDE7B9
:101F300005062BD5150629D594F841002128C9D1CD
:101F4000A068B0F5805F01D12069B0B1206A411C62
:101F50002162216800784860E08C401E0004000C7B
:101F6000E084B7D12068C16821F08001C160206899
:101F7000C16841F04001C160F8BD206A0088C0F32B
:101F800008004860206A801C2062E5E74006F3D51F
:101F90005006F1D5CA68204622F04002CA6084F893
:101FA000413000F0CDF8F8BDC72B000870B5040033
:101FB00004D094F84100002510B106E0012070BD66
:101FC00084F84050204600F023F8242084F8410093
:101FD0002068C16821F40051C160204600F082FEF3
:101FE0002068016921F4904101612068416921F074
:101FF0002A0141612068C16841F40051C1606564F3
:10200000202084F8410084F842006563002070BD00
:1020100010B586B0044614216846FEF79CF91749AE
:102020002068884228D116480021026842F4003214
:102030000260006800F40030059011481038026812
:1020400042F001020260006800F0010005900C20DF
:1020500000900220CDE901010320039007200490A5
:1020600069460848FEF7D8FF002201212620FFF725
:102070003FF92620FFF72EF906B010BD00440040BE
:10208000403802400000024090F84230202B01D03E
:102090000220704721B11AB10023036300F0A8BEEB
:1020A000012070472DE9F0410068224988423FD164
:1020B000214C012721466079097804F1500300255D
:1020C00058B11954401CC0B26071082824D31A4674
:1020D00000261078A52818D102E0A5291AD01BE007
:1020E000D0795A2811D1012012F800C0401C664452
:1020F000C0B2F6B20528F7D99079B04205D10E48A2
:102100005030FEF71BFA657106E0A06A401CA06221
:102110006571E2E719706771012207490748FFF707
:10212000B3FF002804D02571BDE8F041FEF7AABA3C
:10213000BDE8F0810044004000000020BC01002008
:102140007047FEE7104810B50E4901600321416059
:1021500000214FF420228160C0E903124FF4801265
:1021600042610176012242768176C276017741771B
:10217000FEF799FD002803D0BDE81040FEF716BB1E
:1021800010BD0000006400409401002030B587B00D
:1021900014216846FEF7DFF816480024016841F074
:1021A00080010160016801F080010591016841F042
:1021B00001010160016801F001010591016841F030
:1021C0000201016000680C4D00F002000590002241
:1021D00007212846FFF718F80720009001200190FA
:1021E0000220CDE9020469462846FEF715FF07B034
:1021F00030BD0000303802400004024010B58EB0FF
:1022000000240794089409940A940B941C216846AE
:102210000C94FEF7A0F81F481D4901605321C0E946
:10222000011444F61F61C0E903148461FFF78EFBBB
:1022300008B1FEF7BBFA4FF48050079007A9154884
:10224000FFF7C6FB08B1FEF7B1FA1248FFF7BCFC76
:1022500008B1FEF7ABFA0B940BA90E480C94FFF7EC
:102260002DFB08B1FEF7A2FA6020009040F2DC508E
:10227000CDE901040022694606480494FFF73EFCBC
:1022800008B1FEF793FA0348FFF710FC0EB010BD3B
:10229000000400404C0100200C4810B50A490160C0
:1022A0004FF4E1314160002181600C22C160C0E93E
:1022B00004128161C161FFF779FE002803D0BDE8F7
:1022C0001040FEF773BA10BD00440040BC0100206E
:1022D0002DE9FF4F2DED068B8FB072B6894951F86D
:1022E000409F4A6901928A6A0092B1F904200592DE
:1022F000B1F918200492B1F92C200392CE680B6A30
:102300004A6B91F809C04C7F0B9491F831107E4CC8
:102310000A91657A94F906A094F907B062B626B1DD
:10232000811B642901D8012100E000210C9123B117
:10233000C11A642901D8012700E0002722B1801AC0
:10234000642801D8012600E00026E07A4FF0010859
:1023500090B9BCF1000F0FD075B1C4F82C90C4F83F
:102360003090A07A30B19FED690A00F02FF9216B0F
:102370000844206384F80B80207B9FED658A78B940
:102380000B9868B165B10198B0EE480A606384EDBE
:102390000F0A00F01BF9616B0844A06384F80C80FD
:1023A000607B78B90A9868B165B10098B0EE480AC8
:1023B000206484ED120A00F009F9216C084460647D
:1023C00084F80D80207BDFED538A9FED539ADFED7B
:1023D000539AD0B1CFB1C5B100EE10AAB0EE691AD0
:1023E000B8EEC00A60EE280A94ED0F0A00EE890AE2
:1023F000F0EE480A84ED0F0AFEF734F984ED0F0A77
:1024000000F0E4F8616B0844A063607BD0B1CEB10A
:10241000C5B100EE10BAB0EE691AB8EEC00A60EEAF
:10242000280A94ED120A00EE890AF0EE480A84EDBB
:10243000120AFEF717F984ED120A00F0C7F8216CB2
:102440000844606416990020002D088017990880C0
:102450001899088050D0E07A9FED319AA0B10C987D
:1024600090B1A07AB0EE481A08B19FED2E1ADFEDB8
:102470002E1AF0EE490A9FED2D0A4946059A206B67
:1024800000F03FF916990880207BDFED298ADFED07
:10249000299A9FED29AA4FF07C55A0B19FB1E06B1E
:1024A000B0EE481AA84201DDB0EE681AF0EE691AE3
:1024B000F0EE490AB0EE4A0A049A0199A06B00F0C6
:1024C00020F917990880607B002815D0002E13D0C2
:1024D000A06CB0EE481AA84201DDB0EE681AF0EE2A
:1024E000691AF0EE490AB0EE4A0A039A0099606C44
:1024F00000F007F9189908800FB0BDEC068BBDE815
:10250000FF8F0000680000200000002000005C42F7
:1025100000000000000096430AD7233C0000484416
:102520003333B33E0000FA4400803B450AD7233DD5
:1025300000007A4400409C45EC51383DFEE7FEE740
:1025400070B514462DED028BF0EE618A71EE401AE3
:102550000D460646C0ED001AF6EE001A20EE210ADE
:10256000DFED191AB0EE402A00EEA10A00EEE12AD2
:10257000F1EE680AB0EE608A30EE010A32EE012A0E
:10258000B0EE681A81ED002A82ED000A90ED000A93
:10259000FEF768F886ED000A95ED000AB0EE681ABD
:1025A000F0EE480AFEF75EF885ED000A94ED000AA9
:1025B000B0EE681AF0EE480AFEF754F884ED000A0F
:1025C000BDEC028B70BD0000D7B35D3FDFED0A0AA2
:1025D00020EE200AF6EE000AB5EEC00AF1EE10FA7F
:1025E00002DB30EE200A01E030EE600ABDEEC00AE8
:1025F00010EE100A70470000CDCC4C4430EE600A5B
:1026000010B580ED030AD0ED050A044630EE800ACD
:1026100080ED050A90ED061AF1EE410AFEF722F868
:1026200084ED050A94ED001AD4ED030AD4ED011AE5
:1026300094ED022A21EE201A01EE801A94ED040A8C
:1026400070EEC01AB0EE410A02EE210A84ED070ACC
:10265000C4ED040A94ED081AF1EE410AFEF702F8FF
:1026600084ED070A10BD000019489FED1B0A9FED7D
:10267000191A80ED020AF0EE080AC0EC020A0021E5
:10268000C0ED090A80ED0A1A80ED0B0AC0ED120AAE
:10269000F5EE000AC0ED130A9FED101ADFED100AE7
:1026A00080ED140A01EBC10200EB8202491C82EDAD
:1026B000030A82ED040A82ED050A82ED061A82ED14
:1026C000070AC9B2C2ED080A0329EBD3704700001C
:1026D000E0000020CDCC4C3E000000000000FA4499
:1026E00000606A469FED050A80ED030A80ED040A4A
:1026F00080ED050A80ED070A704700000000000029
:102700007047401A02EE100A10B5B8EEC22A20EE49
:10271000022A00EE102AB8EEC00A00EEC02AF1EE3E
:10272000610A32EE010AB0EE611AFDF79BFFB5EEC9
:10273000C00AF6EE000AF1EE10FA02DB30EE200AD3
:1027400001E030EE600ABDEEC00A10EE100A00B2E1
:1027500010BD000010B5064C002202212046FEF7F5
:1027600053FD20460022BDE810400421FEF74CBD79
:102770000004024010B5064C002204212046FEF75A
:1027800043FD20460122BDE810400221FEF73CBD7A
:1027900000040240704700000E498A8A824206D235
:1027A000A0EB02039BB20A2B09D90A3205E007D934
:1027B000131A9BB20A2B02D90A3A8A8200E0888255
:1027C000054A898A12685163814201D1012070470C
:1027D00000207047000000204C01002010B5184C6C
:1027E000A17B4FF4166001290BD0A27B8110052A32
:1027F00012D094F90820002A16DDBDE81040FFF73A
:10280000CBBFFFF7C9FF00280DD0FFF7B3FFFEF7DE
:1028100001FDE064022005E00846FFF7BDFF002847
:1028200001D00020A07310BD94F90800002801DA3F
:102830000846E2E70349A08A0968486310BD000022
:10284000000000204C010020FEF7EABC30B593B038
:1028500030216846FDF77FFD14210CA8FDF77BFDB4
:102860001C480025016841F080510160006800F0BB
:10287000805011901848016841F48041016000685F
:10288000022400F480401190012000900004019087
:102890008001CDE90640082008904FF4A870CDE9EA
:1028A000090407200B906846FEF73EFE70B90CA99C
:1028B0000F2081E831004FF4A0500F90E0021090FB
:1028C00005210CA8FEF746FD002801D0FDF76EFF9C
:1028D00013B030BD4038024000700040024801682B
:1028E00041F470010160704788ED00E0F0B50268C6
:1028F000274B284D284E294F294C4FF0804C9842A9
:1029000009D0604507D0A84205D0B04203D0B842F4
:1029100001D0A04204D122F0700E4A6842EA0E02B1
:1029200098421BD0604519D0A84217D0B04215D0AC
:10293000B84213D0A04211D01A4DA8420ED01A4D61
:10294000A8420BD0194DA84208D0194DA84205D075
:10295000184DA84202D0184DA84203D122F4407568
:10296000CA682A434D6922F080022A438D68C562F5
:102970000D688562984201D0A04201D109690163C6
:10298000016841F004010160012141610260F0BD74
:10299000000001400004004000080040000C00401E
:1029A0000004014000400140004401400048014053
:1029B00000180040001C00400020004010B501F04D
:1029C0001F030121046A99408C430462016A9A4002
:1029D0001143016210BD10B5846842EA032224F459
:1029E0007F440A432243826010BD826822F0700255
:1029F0000A4342F00701816070470000F0B5036AA6
:102A0000026A22F00102026242688469124E24F0D6
:102A100073050C682C4323F002058B682B430D4D86
:102A2000A84201D0B04205D123F00807CB683B4350
:102A300023F00403A84201D0B04205D14D6922F42D
:102A4000407215438A692A43426084614968416340
:102A50000362F0BD0000014000040140F0B5026ACD
:102A6000036A23F010030362436884690D6824F449
:102A7000E64444EA05248D6822F0200242EA051269
:102A80000F4D104EA84201D0B04206D1CF6822F0BF
:102A9000800242EA071222F04002A84201D0B0426E
:102AA00007D14D6923F4406343EA85038D6943EA06
:102AB000850343608461496881630262F0BD000060
:102AC0000000014000040140F0B5026A036A23F4EB
:102AD000807303624368C46922F4007224F07305B2
:102AE0000C68124E2C438D6842EA05220E4DA84216
:102AF00001D0B04206D1CF6822F4006242EA072238
:102B000022F48062A84201D0B04207D14D6923F47B
:102B1000405343EA05138D6943EA05134360C461DA
:102B20004968C1630262F0BD000001400004014039
:102B300030B5046A026A22F4805202624268C369B4
:102B40000D6823F4E64343EA05238D6824F400541A
:102B500044EA0534084DA84202D0084DA84204D1E9
:102B60004D6922F4804242EA85124260C36149689D
:102B70000164046230BD0000000001400004014017
:102B800010B5036A046A24F001040462846924F025
:102B9000F00444EA021423F00A020A438461026248
:102BA00010BD10B5036A046A24F01004046284693D
:102BB00023F0A00324F4704444EA023243EA0111F2
:102BC0008261016210BD10B5806B0021C185FFF7E5
:102BD0008FF810BD01680C3151E8002F22F490727B
:102BE00041E80023002BF5D10168143151E8002F92
:102BF00022F0010241E80023002BF5D1016B0129ED
:102C000009D101680C3151E8002F22F0100241E88F
:102C10000023002BF5D1202180F842100021016310
:102C2000704708B590F84210222901D0022008BD53
:102C300082684FF480539A4201D1016921B1816ABF
:102C40009A421BD04AB10AE00268816A5268C2F314
:102C500008020A80816A891C08E0026972B1026870
:102C6000526802F07F020A70816A491C8162C18D3C
:102C7000491E0904090CC18503D01BE00268526893
:102C8000F1E70168CA6822F02002CA600168CA68D8
:102C900022F48072CA6001684A6922F001024A6126
:102CA000202180F8421000214163026B012A03D0E9
:102CB000FFF7F8F9002008BD016301680C3151E805
:102CC000002F22F0100241E80023002BF5D101680B
:102CD0000A68D20602D50A6849680091818DFFF71B
:102CE00005F8E7E770B5044600680169E26821F479
:102CF0004051114301612169A068E269084361699B
:102D0000114308432168CA6849F20C639A4302439D
:102D1000CA6020684169A26921F440711143416190
:102D200031492068884202D03049884202D1FEF7FA
:102D3000BBFB01E0FEF7A8FBE26900231921642533
:102D40003226B2F5004F626828D0A0FB0101930F34
:102D50009200FDF789FA0146B0FBF5F06FF018021A
:102D6000504301EB800006EB0010B0FBF5F000F0E3
:102D7000F002B1FBF5F002EB0012B1FBF5F06FF0E1
:102D80001803584301EB800006EB0010B0FBF5F090
:102D900000F00F0021681044886070BDA0FB0101A5
:102DA00092185B41FDF760FA0146B0FBF5F00201B5
:102DB000B1FBF5F06FF01803584301EB800006EB10
:102DC000C000B0FBF5F000F0F80002EB4002B1FBF0
:102DD000F5F0584301EB800006EBC000B0FBF5F0C6
:102DE00000F00700D6E70000001001400014014089
:102DF00081628285C28500214164222180F84210CF
:102E0000016921B10168CA6842F48072CA60016830
:102E10004A6942F001024A610068C16841F020013C
:102E2000C1600020704700000148FEF77FBF00002E
:102E3000BC010020FEE70000002201210148FEF74E
:102E4000E3B9000000040240012211460148FEF7E8
:102E5000DBB90000000402400907090E002804DB6A
:102E600000F1E02080F80014704700F00F0000F13E
:102E7000E02080F8141D704792B0FEF7D9F9FFF7F3
:102E8000E5FCFFF783F9FFF75DF9FFF7B7F9FFF707
:102E900003FAFFF75FFCFFF7CFFFFFF7E5FB994C65
:102EA000994940F2DC50A0820968486300219648A5
:102EB000FEF7B8FE38B9FDF77BFB012221469348A7
:102EC000FFF7E2F808B1FDF771FCFEF7A3F98146C0
:102ED000FEF7A0F90646002009908D48012700F171
:102EE00024010F974830CDE9050100BFFEF792F9A4
:102EF000054672B6228AE169D4F82080207962B64C
:102F000018B1681AB0F5967F06D97FB9FDF7BAFBFC
:102F100000206082012709E009990027884505D033
:102F200029461046FDF77CFACDF82480A5EB090070
:102F30000A287DD3A94672B694F9018094F902B0AB
:102F400094F903A062B6DFED731A00EE108AF8EE72
:102F5000C00A9FED711A0CAA0BA980EE810A00EE3F
:102F600090BA0AA8F8EEE00A80EE812A20EE210A43
:102F700062EE210A02EE10AAB8EEC22AC2EE012ABF
:102F800022EEA11AFFF7DCFA48EA0B0151EA0A0126
:102F900013D0DFF87C810020A8F178080F90D8F8D2
:102FA000100028B1D8F810104046691A642923D9B6
:102FB0005748FFF797FB00202EE00F9840B9544880
:102FC000FFF790FB0698FFF78DFB0598FFF78AFB4C
:102FD00001200F902A4600214D48FDF711FB834642
:102FE0002A4601210698FDF70BFB82462A4602215C
:102FF0000598FDF705FB4EE0B0F9080000EE100A59
:103000004348F8EEC00A9DED0A0AFFF7F7FABDEE55
:10301000C00A10EE100A00B28346D8F8240028B186
:10302000D8F824104046691A642906D9069800E0A9
:1030300047E0FFF757FB00200FE0B0F91C0000EE5F
:10304000100A0698F8EEC00A9DED0B0AFFF7D6FAB3
:10305000BDEEC00A10EE100A00B28246D8F8381051
:10306000404619B1816B691A642904D90598FFF7A4
:1030700039FB00200FE0B0F9300000EE100A05988F
:10308000F8EEC00A9DED0C0AFFF7B8FABDEEC00AD3
:1030900010EE100A00B280460EAB0DAA01A9284618
:1030A000FFF716F9BDF90430424651465846FDF780
:1030B00037FB00231A46BDF93810BDF93400FDF77F
:1030C000F9FAA81B142802D32E46FFF787FBA07B32
:1030D000022808D1E06C281AB0F5967F03D3FFF7D9
:1030E000B3FE03200CE0A07B04287FF4FFAEE06C6D
:1030F000281AB0F5487FFFF4F9AEFFF72BFB052047
:10310000A073F3E6000000204C010020BC01002069
:10311000E00000200000FA440000C8424FF0407078
:10312000E1EE100A704700000000000000000102FC
:103130000304060708090000000001020304000060
:10314000603100080000002068000000C401000891
:10315000C83100086800002000080000E0010008F5
:10316000000000000000000000010000000000005E
:1031700000000000DC05000000000000000000006E
:10318000000000000000000000000000000000003F
:10319000000000000000000000000000000000002F
:1031A000000000000000000000000000000000001F
:1031B00000000000000000000100000010000000FE
:0831C000000000000024F400EF
:040000050800018965
:00000001FF
