:020000040800F2
:10000000A007002029020008EB1C00085F1B000865
:10001000E91C000881050008992100080000000083
:10002000000000000000000000000000431E000867
:100030007106000800000000411E0008851E00082F
:10004000430200084302000843020008430200087C
:10005000430200084302000843020008430200086C
:10006000430200084302000843020008430200085C
:10007000430200084302000843020008430200084C
:10008000430200084302000843020008430200083C
:1000900085050008430200084302000843020008E7
:1000A000430200084302000843020008430200081C
:1000B000430200084302000843020008430200080C
:1000C00043020008430200084302000843020008FC
:1000D00043020008430200088D2100084302000883
:1000E00043020008430200084302000843020008DC
:1000F00043020008430200084302000843020008CC
:1001000043020008430200084302000843020008BB
:1001100043020008430200084302000843020008AB
:10012000430200084302000843020008430200089B
:100130004302000800000000000000004302000825
:10014000430200084302000843020008430200087B
:10015000430200084302000843020008430200086B
:10016000430200084302000843020008430200085B
:1001700043020008430200080000000000000000E5
:10018000430200084302000800F002F800F03CF8C7
:100190000AA090E8000C82448344AAF10107DA45E2
:1001A00001D100F031F8AFF2090EBAE80F0013F0F8
:1001B000010F18BFFB1A43F001031847702200001B
:1001C00090220000103A24BF78C878C1FAD85207AC
:1001D00024BF30C830C144BF04680C6070470000C1
:1001E0000023002400250026103A28BF78C1FBD840
:1001F000520728BF30C148BF0B6070471FB502F0DF
:1002000003F91FBD10B510BD00F0CFF81146FFF780
:10021000F5FF01F0E3FF00F0EDF803B4FFF7F2FFA4
:1002200003BC00F0F5F80000094880470948004782
:10023000FEE7FEE7FEE7FEE7FEE7FEE7FEE7FEE796
:10024000FEE7FEE704480549054A064B70470000F3
:10025000191F000889010008A0010020A007002044
:10026000A0030020A003002053EA020C00F06980E4
:100270002DE9F04B4FF00006002B1FBFB3FA83F5BA
:1002800003FA05F424FA05F65E4012BF1643B2FAEB
:1002900082F502FA05F4C5F120051EBF22FA05FC1D
:1002A00044EA0C04203556EA044C4FEA144418BFC3
:1002B000641C4FF000084FF00009904271EB030CF2
:1002C00039D3002919BFB1FA81F701FA07F6B0FA5C
:1002D00080F700FA07F6C7F120071EBF20FA07FCD7
:1002E00046EA0C062037B6FBF4FCA7EB0507103FE7
:1002F00007F01F0BCBF120060CFA0BFB2CFA06F6CD
:1003000044BFB3460026202FA4BF5E464FF0000B2B
:100310005BEA060C08BF4FF0010B19EB0B09ABFBB6
:10032000027C48EB0608C01B06FB02CC0BFB03CC8F
:1003300071EB0C01C1E70B46024641464846BDE859
:10034000F08B13B54FF000004FF00001AFF30080C9
:10035000BDE81C4070474FF0000200B513469446BC
:100360009646203922BFA0E80C50A0E80C50B1F10D
:100370002001BFF4F7AF090728BFA0E80C5048BF21
:100380000CC05DF804EB890028BF40F8042B08BFBF
:10039000704748BF20F8022B11F0804F18BF00F8BB
:1003A000012B7047704770477047754600F02CF876
:1003B000AE4605006946534620F00700854618B052
:1003C00020B5FFF73FFFBDE820404FF000064FF09B
:1003D00000074FF000084FF0000B21F00701AC467A
:1003E000ACE8C009ACE8C009ACE8C009ACE8C00999
:1003F0008D46704710B50446AFF300802046BDE837
:100400001040FFF70ABF0000004870473C01002081
:1004100001491820ABBEFEE7260002007047411DCF
:100420000A2900D80020704710B52B4C472841D02E
:1004300008DCA0F14100062847D2DFE800F0161ED4
:10044000222A3337002163281FD009DC58283DD0E9
:1004500061280ED0622838D1E07800F0FD001FE05E
:1004600064281AD0672830D129E0E07840F00100F4
:1004700016E0E07800F0FE0012E0E07840F00200C4
:100480000EE0E07840F004000AE0E07800F0FB00C5
:1004900006E0E07840F0080002E0E07800F0F700C5
:1004A000E0700FE0BDE8104001F0DCBCBDE810409A
:1004B00001F0C8BC0120207101F078FE02E021713A
:1004C00001F06CFE00F000FEA06010BD21706170B4
:1004D000A170E170F3E700000000002070B5274C28
:1004E0000026A17931B104F10C0501290BD00229B4
:1004F00040D112E0A52803D0BDE87040FFF794BFBB
:10050000E671012007E0E1796854491CC8B2E07146
:10051000052801D30220A07170BD5A282AD128785D
:100520006978AA78EB7801441A4411442A79C9B24F
:1005300091421FD100F00F01E170810602D501F058
:1005400081FC03E0C00601D501F08CFC2878C0F3E3
:1005500080102071207910B101F028FE01E001F037
:100560001DFE68782070A8786070E878A07000F0B0
:10057000ABFDA060A671E67170BD00000000002018
:10058000FEE70000014800F006BA0000CC000020A1
:1005900000B58BB028216846FFF7DDFE0020012161
:1005A000CDE906010590009001900290039004901F
:1005B0000E20CDE908106946084800F0EBF848B96C
:1005C000064800F0F5FB28B90221044800F072F853
:1005D000002801D000F04DF80BB000BDCC00002089
:1005E00038B5009313460A460146049C4FF4007048
:1005F00000F00AF80020034602460090214640F22F
:10060000FF1000F001F838BD2DE9F0418AB00E4628
:1006100080461C46154618216846109FFFF79BFE32
:100620000020CDE9008008210290CDE903018DF87A
:100630001400300A8DF818008DF81960280A8DF81A
:100640001A00200A8DF81C008DF81D40380A8DF81C
:100650001E008DF81B508DF81F7008AB06AA694666
:10066000024800F039F80AB0BDE8F081CC00002063
:10067000704701F0E7FB01F091FD72B6FEE7000064
:100680000B4B10B5DB7813EA000403EA010306D034
:100690003BB94FF47A7012FB00F000B210BD03B109
:1006A0000CB1002010BD4FF61840424310B210BDEF
:1006B0000000002090F82020012A07D0022A05D04F
:1006C000416A41F48021416201207047006842691B
:1006D0000A43426100207047F0B590F8205004684A
:1006E000A468012D05D0022D03D0416A41F4802178
:1006F0004DE014F0406F01D1E50045D5C4F301642D
:100700000125A5401D608D684FF4C0739DB1CE6872
:1007100035434E6845EAC605066803EB0417F551F4
:100720004FF4C275076805EB04150E697E51097D0B
:10073000012905D009E00E88CD6845EA4655EBE76A
:1007400001684E5946F480764E511179D2F8055021
:100750004FF4C67641EA0521056806EB0416A95157
:100760001178D2F801204FF4C47541EA02210268E1
:1007700005EB04155151006803EB0411425842F097
:10078000010242500020F0BD416A41F40011416273
:100790000120F0BD10B590F82020012A07D0022AD0
:1007A00005D0416A41F480214162012010BD3B48DF
:1007B000D0F8002242F00102C0F80022D0F8002256
:1007C00022F47C52C0F80022D0F800224B6A42EAA0
:1007D0000322C0F800220A7D02F01F0301229A4082
:1007E000D0F81C329343C0F81C32CB69B3B9D0F8AF
:1007F0000C329343C0F80C328C894B6864F31F436E
:100800004C6900EBC404C4F840320C890B6864F3F3
:100810001F434C6900EBC404C4F84432CB69012B7C
:1008200016D1D0F80C321343C0F80C320C884B6848
:1008300064F31F434C6900EBC404C4F840320C89D4
:10084000CB6864F31F434C6900EBC404C4F8443222
:100850008B69002BD0F804320ED01343C0F8043259
:100860000B69002BD0F8143208D01343C0F81432AF
:10087000096A012904D008E09343EFE79343F5E7C1
:10088000D0F81C121143C0F81C12D0F8001221F04D
:100890000101C0F80012002010BD000000640040FB
:1008A000704770B590F82040012C05D0022C03D081
:1008B000416A41F4802128E0046809B32469A4074F
:1008C00020D04FF4D874056804EB01142D5915F0AD
:1008D0000405956005682D591AD0ED085560056826
:1008E0002C5904F00204D4604FF4DA74056804EB68
:1008F00001142E5906F00F06082E0CD308250DE022
:10090000E468DCE7416A41F400114162012070BDF6
:100910006D0D1560E3E72D5905F00F0515610568AC
:100920002D59C5F30725956105682C59240C546190
:100930004FF4DC72046802EB0112A4581C700468C6
:10094000A458240A5C700468A458240C9C700468A1
:10095000A258120EDA704FF4DE72046802EB011234
:10096000A4581C710468A458240A5C710468A45833
:10097000240C9C710468A258120EDA71006829B127
:10098000016941F020010161002070BDC16841F0A2
:100990002001C160F8E72DE9F05F054600680024FA
:1009A0004669D0F804908768D0F80CB0D0F810A051
:1009B000D0F81880F10748D0F90714D001218160E0
:1009C000B80703D5284600F020FA0CE0780702D5D6
:1009D0004FF4006407E0380702D54FF4805402E07A
:1009E000284600F011FAF80516D529684FF48070F2
:1009F0008860B80503D5284600F009FA0CE07805B0
:100A000002D544F4005407E0380502D544F480448C
:100A100002E0284600F0FAF9F80316D529684FF4E9
:100A200080308860B80303D5284600F0F2F90CE066
:100A3000780302D544F4004407E0380302D544F4B7
:100A4000803402E0284600F0E3F9300707D55FEA7A
:100A5000CB6004D52968102044F40074C860700786
:100A60004FF0080707D55FEA0B7004D52868C76008
:100A7000284600F059F9B00706D52868C0688007F5
:100A800002D0284600F052F9700607D55FEACA6026
:100A900004D52968102044F480640861B00607D5A5
:100AA0005FEA0A7004D528680761284600F07CF9DF
:100AB000F00606D528680069800702D0284600F0B5
:100AC00074F9B00308D55FEAC96005D5296810201C
:100AD0004860284600F06AF9F00307D55FEA09701C
:100AE00004D528684760284600F094F9300446D5BC
:100AF0005FEA497040D5F00504D55FEAC87001D0BF
:100B000044F00104B00504D55FEA887001D544F0D3
:100B10000204700504D55FEA487001D544F004046E
:100B2000300529D518F0700F26D008F07000402845
:100B300015D006DC102809D020280AD0302816D17C
:100B40000AE050280ED0602811D10EE044F00804CD
:100B50000DE044F010040AE044F0200407E044F003
:100B6000400404E044F0800401E044F48074286808
:100B7000816921F070018161296804204860002C9E
:100B800005D0686A204368622846FFF789FEBDE801
:100B9000F09F70B5040003D094F8200010B104E079
:100BA000012070BD204600F081F82068016841F006
:100BB0000101016000F088FA0546052604E000F016
:100BC00083FA401B0A2811D820684068C007F6D075
:100BD0002068016821F00201016000F075FA054605
:100BE0000BE000F071FA401B0A2806D9606A40F455
:100BF0000030606284F82060D2E720684068800797
:100C0000EFD4207E0128206801683DD021F08001CA
:100C10000160607E01282068016838D021F0400121
:100C20000160A07E01282068016833D021F02001F6
:100C30000160E07E0128206801682ED041F010019B
:100C40000160207F01282068016829D021F0080177
:100C50000160607F01282068016824D021F0040130
:100C60000160D4E902010843D4E9041211430843A6
:100C70006168491E08432168C86100206062012044
:100C800084F82000002070BD41F08001C0E741F0F1
:100C90004001C5E741F02001CAE721F01001CFE78C
:100CA00041F00801D4E741F00401D9E710B586B05E
:100CB000044614216846FFF74EFB18492068884215
:100CC00029D117480021026842F0007202600068D2
:100CD00000F00070059012481038026842F00102DE
:100CE0000260006800F0010005904FF4C0500090D1
:100CF0000220CDE9010103200390092004906946F8
:100D0000084800F0E3F800221146142000F04AFAE7
:100D1000142000F039FA06B010BD00000064004055
:100D200040380240000002407047000010B51C4AE5
:100D300001688AB0914231D16B4602AA0021FFF7C7
:100D4000B0FD00282AD10498002827D10598002852
:100D500024D10698082821D10298B0F5007F1DD92A
:100D600040F20521884219D8BDF80010A0F20120F8
:100D70004ABA00EB40010B4820F82120BDF80220C0
:100D800000EB810452BA6280BDF8040040BAA08032
:100D90009DF80600A07100F097F9A0600AB010BDA0
:100DA0000064004024000020704770477047000036
:100DB00070B5044690F82000012804D0606A40F421
:100DC0000020606218E0022084F82000206801689A
:100DD00021F00101016000F077F905460EE000BF47
:100DE00000F072F9401B0A2808D9606A40F400300C
:100DF0006062052084F82000012070BD20684068F2
:100E0000C007EDD1606270BD704770477047704792
:100E10007047704770472DE9F0410446876D00F038
:100E200053F9064694F835000025022806D08020A4
:100E3000606584F834500120BDE8F08120680168C5
:100E400021F0160101602068416921F080014161B3
:100E5000206C08B9A06C20B12068016821F008015D
:100E600001602068016821F0010101600CE000F0E0
:100E70002BF9801B052807D920206065032084F802
:100E8000350084F83450D7E720680068C007EED1F9
:100E900094F85C103F208840B860012084F8350049
:100EA00084F834500020C7E790F83510022903D0A9
:100EB0008021416501207047052180F835100068C8
:100EC000016821F001010160002070472DE9F84F11
:100ED000DFF8BCA10022012503264FF00F090AF11B
:100EE000040BAAF1040E00BF0B6805FA02F42340BC
:100EF000A34270D10F7907F00307012F01D0022F11
:100F000016D187684FEA420806FA08FC27EA0C0760
:100F1000D1F80CC00CFA08FC4CEA070CC0F808C069
:100F20004768A7430C79C4F3001494403C434460E1
:100F30000C79E443A4070AD0C4684FEA420C06FACD
:100F40000CF7BC438F6807FA0CF72743C7600C798E
:100F500004F00304022C12D1D40800EB840CDCF85A
:100F600020405707FF0E09FA07F824EA0804D1F8D1
:100F7000108008FA07F848EA0408CCF820800468D2
:100F80004FEA420C06FA0CF7BC430F7907F003074F
:100F900007FA0CF7274307604C6814F4403F70D001
:100FA0003C4C276847F480472760246822F00307F9
:100FB00004F480440094384C07EB040CDCF8084837
:100FC00097074FEA177809FA08F7BC43334FB8423E
:100FD00002D1002724E054E0314FB84201D101276B
:100FE0001EE0304FB84201D1022719E02E4FB8421F
:100FF00001D1032714E02D4FB84201D104270FE09F
:101000002B4FB84201D105270AE02A4FB84201D13F
:10101000062705E0284FB84201D1072700E008273E
:1010200007FA08F72743CCF80878DAF80040574663
:10103000D1F804C09C435FEACC2C00D51C433C6033
:10104000DBF800405F46D1F804C09C435FEA8C2C7B
:1010500000D51C433C60DEF800407746D1F804C060
:101060009C435FEA8C3C00D51C433C60084F083F22
:101070003C68D1F804C09C435FEACC3C00D51C43DB
:101080003C60521C102AFFF42FAFBDE8F88F00001F
:10109000083C01404438024000300140000002405A
:1010A0000004024000080240000C02400010024010
:1010B0000014024000180240001C02400AB1816185
:1010C00070470904FBE70000014880687047000092
:1010D0001400002002488168027811448160704742
:1010E000140000200B4810B5016841F40071016044
:1010F000016841F480610160016841F48071016020
:10110000032000F06FF80F2000F006F800F024F83C
:10111000002010BD003C024070B50D4D04464FF458
:101120007A712878B1FBF0F00A490968B1FBF0F058
:1011300000F00AFB48B9102C07D200222146501EAD
:1011400000F030F800206C6070BD012070BD000020
:1011500014000020200000200A4808B5016841F46E
:1011600080410160006800F4804000900548001F45
:10117000016841F080510160006800F080500090EB
:1011800008BD000044380240002809DB00F01F02BF
:10119000012191404009800000F1E020C0F80011D9
:1011A00070470000F0B40E4B1B680C46C3F30223DB
:1011B000C3F10705042D00D90425191D072901D203
:1011C000002300E0DB1E012606FA05F1491E21403E
:1011D00099409E40761E16403143F0BC00F0EEBFB1
:1011E0000CED00E0064900F0070208684FF6FF0327
:1011F000184040EA0220034A10430860704700008C
:101200000CED00E00000FA052DE9F0470E46050060
:1012100065D0DFF81481D8F80000F7B200F00700BD
:10122000B04207D288F80070D8F8000000F007003C
:10123000B04254D128683D4C810712D5400703D5F0
:10124000206840F4E05020602878000703D520682B
:1012500040F4604020602068A96820F0F000084356
:1012600020602878C0072DD03049686808390128E7
:1012700012D0022813D0032811D009688907002949
:101280002DDA216821F0030101432160FFF71CFFE3
:10129000814641F2883A0EE009688903EFE7096860
:1012A0008901ECE7FFF710FFA0EB0901514502D9D6
:1012B0000320BDE8F0872068696800F00C00B0EBFF
:1012C000810FEFD1D8F80010404601F00701B1427C
:1012D00007D90770006800F00700B04201D0012074
:1012E000E7E72878400705D52068E96820F4E05052
:1012F000084320602878000706D52068296920F473
:10130000604040EAC100206000F038F82168084AD7
:10131000C1F30311515CC8400649086006480068E3
:10132000FFF7FAFE0020C4E7003C02400838024004
:10133000122400082000002018000020044805495D
:1013400000680968044AC1F38221515CC8407047B3
:1013500020000020083802402224000804480549E3
:1013600000680968044AC1F34231515CC8407047C3
:10137000200000200838024022240008154810B53B
:10138000006810F00C02144813D04110042A0FD04A
:10139000082A0ED10F4C241F2268236802F03F0256
:1013A0005B0207D52068C0F38810A0FB010106E0AE
:1013B000084610BD2168C1F38811A1FB000100237C
:1013C000FEF752FF2168C1F30141491C4900B0FBFF
:1013D000F1F010BD083802400024F4002DE9F84F68
:1013E00004006ED02078DFF84C93C007A9F1040503
:1013F0004AD009F104000168C1F38101012908D034
:101400000068C0F3810002280AD1D9F80000400228
:1014100006D52868800337D560680028E1D033E01E
:101420006068B0F5803F10D0B0F5A02F286810D0CC
:1014300020F480302860286820F4802028606068CC
:10144000A8B1FFF741FE06460DE0286840F4803061
:10145000F4E740F480202860F7E700BFFFF734FE90
:10146000801B642873D828688003F7D50CE0FFF749
:101470002BFE064605E000BFFFF726FE801B642812
:10148000F0D828688003F7D42078DFF8AC82800792
:101490004FF0000A3ED5A748001D016811F00C0F5F
:1014A00008D00068C0F3810002280BD1D9F80000F1
:1014B000400207D42868800716D5E068012800D1CB
:1014C00012E033E1E068B8B10120C8F80000FFF78E
:1014D000FBFD064605E000BFFFF7F6FD801B022876
:1014E000C0D828688007F7D52868216920F0F8005F
:1014F00040EAC10028600DE0C8F800A0FFF7E4FD55
:10150000064604E0FFF7E0FD801B02281FD828688C
:101510008007F7D42078000722D5864F8748616975
:10152000703771B101210160FFF7CEFD064604E07E
:10153000FFF7CAFD801B022809D838688007F7D555
:101540000EE0C0F800A0FFF7BFFD064605E082E010
:10155000FFF7BAFD801B02287DD838688007F7D4D2
:101560002078400768D5DFF8CCB100270BF13C0BA1
:10157000DBF80000C0000BD4DBF8001041F0805114
:10158000CBF80010DBF80000012700F0805000903D
:101590006B4E3068C00510D4306840F48070306005
:1015A000FFF792FD009005E0FFF78EFD0099401ACD
:1015B000022850D83068C005F6D55E4EA0686C365B
:1015C00001280FD00528306810D020F001003060CD
:1015D000306820F004003060A068B8B1FFF774FDF7
:1015E00000900FE0306840F00100F4E740F00400A4
:1015F0003060F7E7FFF768FD0099411A41F2883043
:10160000814266D830688007F4D50EE0FFF75CFDB4
:10161000009007E0FFF758FD0099411A41F2883029
:10162000814256D830688007F4D42FB1DBF800101F
:1016300021F08051CBF80010A069C8B33D49091DC5
:101640000968C1F3810102294AD00228504607D017
:10165000C8F8600000E03CE0FFF736FD04463BE0E0
:101660004746C8F86000FFF72FFD064605E000BFBB
:10167000FFF72AFD801B02282BD828688001F7D4A9
:10168000D4E907010843A16A2E4A490802EB014147
:10169000626A41EA8211084394F82C1040EA016121
:1016A000C9F8001001203866FFF70EFD044606E079
:1016B0003EE000BFFFF708FD001B022809D828689C
:1016C0008001F7D534E000BFFFF7FEFC001B0228C5
:1016D00002D90320BDE8F88F28688001F4D427E000
:1016E0000128F7D0D9F80000E26900F480019142A6
:1016F0001CD1226A00F03F01914217D147F6C07118
:10170000626A0140B1EB821F10D1A26A4FF0FF3331
:1017100000F4403103EB5202B1EB024F06D194F8D2
:101720002C1000F07060B0EB016F01D00120D1E708
:101730000020CFE70438024000004742800E4742B5
:10174000007000400000FFFF10B5401EB0F1807F28
:1017500001D3012010BD4FF0E02460610F2160171C
:1017600000F02CFD0020A06107202061002010BDAA
:101770007047000008B500680B49884213D10B4937
:1017800000208871C871087100F008FD08480068E1
:1017900001684068009005490122BDE80840491DE4
:1017A000034800F0B5B908BD004400400000002027
:1017B000F4000020F8B5016804460868CA684B695F
:1017C00010F00F0F4FF0000559D003F0010602F49E
:1017D0009077374365D0C10705D0D10503D5616C3B
:1017E00041F001016164410705D5D90703D0616C5F
:1017F00041F002016164810705D5D90703D0616C0E
:1018000041F004016164010707D502F02001314372
:1018100003D0616C41F008016164616C00293AD029
:10182000800604D5900602D5204600F0ABFB206868
:101830004069616CC0F38010090700D460B3204692
:1018400000F079FB20684069400621D520681430FB
:1018500050E8001F21F0400140E80012002AF5D1B5
:10186000E06BA8B172490165E06BFFF71DFB002832
:1018700011D0E06B016D01B0BDE8F0400847830670
:101880000FD593060DD52046BDE8F84000F07ABB91
:101890002046FFF76FFFF8BD2046FFF76BFF65643A
:1018A000F8BD266B2023012E7ED1C6067CD5D60638
:1018B0007AD508684868009048694FF002064006EB
:1018C0004DD5E26B106840684FF480770004000C3F
:1018D0003AD0A18D814237D9E085D069B8422DD068
:1018E00020680C3050E8001F21F4807140E800129D
:1018F000002AF5D12068143050E8001F21F00101C2
:1019000040E80012002AF5D12068143050E8001F8A
:1019100021F0400140E80012002AF5D184F842305D
:10192000256320680C3050E8001F21F0100140E8CA
:101930000012002AF5D1E06BFFF76DFA6663A08D07
:10194000E18D401A81B206E0A18D8142A8D1D06913
:10195000B842A5D166632046FFF70AFFF8BDA08D07
:10196000E18D401A81B2E08D0028F7D00029F5D032
:1019700020680C3050E8002F22F4907240E80027D5
:10198000002FF5D12068143050E8002F22F001021A
:1019900040E80027002FF5D184F842302563206805
:1019A0000C3050E8002F00E006E022F0100240E882
:1019B0000023002BF3D1CDE705062BD5150629D53D
:1019C00094F841002128C9D1A068B0F5805F01D109
:1019D0002069B0B1206A411C21622168007848600A
:1019E000E08C401E0004000CE084B7D12068C16880
:1019F00021F08001C1602068C16841F04001C160F0
:101A0000F8BD206A0088C0F308004860206A801C86
:101A10002062E5E74006F3D55006F1D5CA682046B6
:101A200022F04002CA6084F8413000F097F8F8BD17
:101A3000291F000870B5040004D094F84100002567
:101A400010B106E0012070BD84F84050204600F03F
:101A500023F8242084F841002068C16821F4005153
:101A6000C160204600F0F0FA2068016921F490413D
:101A700001612068416921F02A0141612068C16843
:101A800041F40051C1606564202084F8410084F86D
:101A900042006563002070BD10B586B00446142175
:101AA0006846FEF758FC17492068884228D1164836
:101AB0000021026842F400320260006800F4003045
:101AC000059011481038026842F001020260006877
:101AD00000F0010005900C2000900220CDE90101EA
:101AE000032003900720049069460848FFF7EEF9A9
:101AF000002211462620FFF755FB2620FFF744FB66
:101B000006B010BD004400404038024000000240D2
:101B100090F84230202B01D00220704721B11AB139
:101B20000023036300F016BB0120704710B5006866
:101B3000074988420BD107484079FEF7CFFC054999
:101B40000122BDE81040491D0348FFF7E1BF10BD69
:101B50000044004000000020F40000207047FEE731
:101B600010B590ED001AB5EEC01AF1EE10FA02DBD6
:101B7000B0EE410A01E0B1EE410AD1ED000AF5EE06
:101B8000C00AF1EE10FA01DAF1EE600AD2ED001AA5
:101B9000F5EEC01AF1EE10FA01DAF1EE611AF4EE88
:101BA000C00AF1EE10FA01DDB0EE600AF4EEC01AE0
:101BB000F1EE10FA01DDB0EE610A10EE103A0C4CB5
:101BC000A34213DDDFED0B1AC1EE800A21EE200ADD
:101BD00080ED000A91ED000A20EE200A81ED000A56
:101BE00092ED000A20EE200A82ED000A10BD0000EE
:101BF0000000FA440000FA44104810B50E49016094
:101C00000321416000214FF420228160C0E90312CA
:101C10004FF4801242610176012242768176C276CB
:101C200001774177FEF7B5FF002803D0BDE81040EB
:101C3000FEF71FBD10BD000000640040CC00002076
:101C400030B587B014216846FEF785FB164800249E
:101C5000016841F080010160016801F08001059197
:101C6000016841F001010160016801F00101059185
:101C7000016841F00201016000680C4D00F00200B3
:101C80000590002207212846FFF718FA0720009048
:101C9000012001900220CDE9020469462846FFF7A1
:101CA00015F907B030BD0000303802400004024092
:101CB0000C4810B50A4901604FF4E1314160002140
:101CC00081600C22C160C0E904128161C161FFF72B
:101CD000B1FE002803D0BDE81040FEF7CABC10BD1D
:101CE00000440040F4000020FEE7FEE710EE101A6A
:101CF000B1F13F4F17D210EE101AB1F17C5F12DA3A
:101D000010EE901A2E4A91420DD210EE901A2D4AE2
:101D1000914208DA9FED2C0A80ED030A80ED040A57
:101D200080ED050A48E030EE600A80ED030AD0ED50
:101D3000050A30EE801A80ED051AD0ED060AB4EEE1
:101D4000E01AF1EE10FA01DDC0ED050A90ED051A7A
:101D5000F1EE600AB4EEE01AF1EE10FA01D2C0ED35
:101D6000050AD0ED000A90ED011AD0ED051A60EEDB
:101D7000800A41EE210A90ED041AD0ED021A30EEED
:101D8000411A41EE810AC0ED070A80ED040A90ED88
:101D9000080AF4EEC00AF1EE10FA01DD80ED070A40
:101DA000D0ED070AB1EE400AF4EEC00AF1EE10FAE7
:101DB00002D3B0EE600A704780ED070A704700005A
:101DC0000000A0C10000A041000000001648DFEDA7
:101DD000170AB0EE080A80EC020A002280ED090A18
:101DE000C0ED0A0A80ED120A9FED110A9FED121A4A
:101DF00080ED130A9FED0F0ADFED100A02EBC2011E
:101E000000EB8101521C81ED020A81ED030A81ED94
:101E1000040A81ED050A81ED061A81ED070AC1ED7C
:101E2000080A032AEAD3704760000020CDCC4C3E5C
:101E30002428BE3D000000000000FA4400606A460D
:101E40007047704710B5064C002201212046FFF76D
:101E500035F920460022BDE810400421FFF72EB9D5
:101E60000004024010B5064C002204212046FFF772
:101E700025F920460122BDE810401146FFF71EB9A2
:101E800000040240FFF726B930B593B03021684610
:101E9000FEF761FA14210CA8FEF75DFA1C48002534
:101EA000016841F080510160006800F0805011909D
:101EB0001848016841F4804101600068022400F480
:101EC0008040119001200090000401908001CDE934
:101ED000064004200890A820CDE9090407200B90B3
:101EE0006846FFF77BFA70B90CA90F2081E8310032
:101EF0004FF4A0500F90E002109005210CA8FFF7BE
:101F000083F9002801D0FEF7B4FB13B030BD000008
:101F100040380240007000400248016841F47001FE
:101F20000160704788ED00E010B5806B0021C1852D
:101F3000FFF720FC10BD01680C3151E8002F22F49E
:101F4000907241E80023002BF5D10168143151E86B
:101F5000002F22F0010241E80023002BF5D1016B94
:101F6000012909D101680C3151E8002F22F010023B
:101F700041E80023002BF5D1202180F842100021F8
:101F80000163704708B590F84210222901D0022061
:101F900008BD82684FF480539A4201D1016921B192
:101FA000816A9A421BD04AB10AE00268816A52688B
:101FB000C2F308020A80816A891C08E0026972B1D2
:101FC0000268526802F07F020A70816A491C8162CD
:101FD000C18D491E0904090CC18503D01BE00268AC
:101FE0005268F1E70168CA6822F02002CA600168FD
:101FF000CA6822F48072CA6001684A6922F001024C
:102000004A61202180F8421000214163026B012ABD
:1020100003D0FFF78BFD002008BD016301680C3180
:1020200051E8002F22F0100241E80023002BF5D1E7
:1020300001680A68D20602D50A6849680091818D54
:10204000FFF796FBE7E7000070B5044600680169FA
:10205000E26821F44051114301612169A068E269FD
:1020600008436169114308432168CA6849F20C6357
:102070009A430243CA6020684169A26921F4407111
:102080001143416131492068884202D03049884279
:1020900002D1FFF763F901E0FFF750F9E26900238D
:1020A000192164253226B2F5004F626828D0A0FBC2
:1020B0000101930F9200FEF7D7F80146B0FBF5F04F
:1020C0006FF01802504301EB800006EB0010B0FBEC
:1020D000F5F000F0F002B1FBF5F002EB0012B1FBFD
:1020E000F5F06FF01803584301EB800006EB001089
:1020F000B0FBF5F000F00F0021681044886070BD5F
:10210000A0FB010192185B41FEF7AEF80146B0FB5F
:10211000F5F00201B1FBF5F06FF01803584301EB45
:10212000800006EBC000B0FBF5F000F0F80002EB19
:102130004002B1FBF5F0584301EB800006EBC00014
:10214000B0FBF5F000F00700D6E7000000100140FA
:102150000014014081628285C285002141642221F0
:1021600080F84210016921B10168CA6842F48072A6
:10217000CA6001684A6942F001024A610068C168A8
:1021800041F02001C1600020704700000148FFF7C6
:1021900011BB0000F4000020FEE700000022022135
:1021A0000148FEF78BBF000000040240012202211B
:1021B0000148FEF783BF0000000402400907090E32
:1021C000002804DB00F1E02080F80014704700F0E4
:1021D0000F0000F1E02080F8141D70472DED028BF8
:1021E00086B0FEF77FFFFFF74FFEFFF729FDFFF7F1
:1021F00003FDFFF75DFD14216846FEF7ACF87A4851
:102200000027016841F0020101600068774C00F08E
:10221000020005903A4607212046FEF74FFF0720AF
:102220000090012001900220CDE902076946204676
:10223000FEF74CFEFFF706FEFFF7B0FFFFF7C6FD07
:10224000FEF7A6F901226A496A48FFF761FC08B166
:10225000FEF70FFAFEF738FF05462C464FF4FA76E4
:10226000B9460FE0FEF730FF001B0A280AD3FEF73D
:102270002BFF002304461A4619461846CDF8009055
:10228000FEF7AEF9FEF720FF401BB042EAD3FEF79F
:102290001BFFDFF85CA10546AAF1050AFEF714FF53
:1022A000411B0A29FAD3DAF8081005465446401AA9
:1022B000B0420BD984F8009084F8019084F8029021
:1022C00084F8039084F80490FFF768FF94F9000005
:1022D000FEF7A5F808EE100A94F90100FEF79FF842
:1022E00008EE900A94F90200FEF799F8B8EEC80AD1
:1022F00001EE900A9FED402AF8EEE82AF8EEE11A86
:10230000C0EE020A9FED3D0A03AA02A901A882EECF
:10231000821A60EE800AC1EE822A21EE001A22EEB5
:10232000800A70EE601ACDED011AF6EE001A60EE2A
:10233000A10ADFED331AB0EE602A41EE210A01EE68
:10234000612A32EE002A30EE800A8DED022A8DEDF0
:10235000030AFFF705FC2B4CB4F9020000EE100A4B
:1023600004F13C00F8EEC00A9DED010AFFF7BEFC47
:10237000BDEEC00A10EE100A0FFA80F8B4F90E0094
:1023800000EE100A04F16000F8EEC00A9DED020AAA
:10239000FFF7ACFCBDEEC00A10EE100A07B2B4F9AC
:1023A0001A0000EE100A04F18400F8EEC00A9DED58
:1023B000030AFFF79BFCBDEEC00A0122022110EECA
:1023C000100A04B21046FEF75BF983460122082189
:1023D0000420FEF755F900905B46224639464046F8
:1023E000FEF7FEF85AE700003038024000040240D1
:1023F00005000020F40000200000C8420000FA445C
:10240000D7B35D3F240000204FF04070E1EE100A8A
:1024100070470000000000000000010203040607EE
:102420000809000000000102030400004C24000819
:102430000000002024000000C401000870240008EF
:10244000240000207C070000E001000800000000DC
:10245000000000000000000000000000000000007C
:102460000100000010000000000000000024F40043
:040000050800018965
:00000001FF
